:020000040000FA
:060000001DEF0BF01200E1
:060800001DEF0BF01200D9
:06080800FDEF0AF01200F2
:02082A000000CC
:04082C000401105162
:10083000600BE842E842E842E842E842000901E091
:1008400055D01151070A51E00B0A4FE0070A40E06A
:10085000010A2CE00B0A28E0020A26E0030A22E043
:10086000080A12E0010A0EE00F0A0AE0030A01E09A
:100870003CD00001010E896F0001040E906F36D04C
:1008800036D834D090D832D00001010E896F0001E3
:10089000920E8A6F000E8B6F000191930001010E82
:1008A0008E6F24D0A8D822D0F4D820D00001010E19
:1008B000896F0401145100018A6F8B6B930E8A2794
:1008C000000E8B23000191930001010E8E6F0ED05C
:1008D0000001010E896F04011451EA6A930FE96E59
:1008E000000EEA2212C4EFFF01D000D01200800EE9
:1008F0000401105D57E11351030A34E0010A10E0CE
:10090000030A01E04DD00001010E896F00016C0E59
:100910008A6F140E8B6F120E00018E6F8F6B40D09A
:100920000001010E896F04011251F66EF76AD8902A
:10093000F636F736150EF626150EF7220900F5CF16
:100940008AF00A00F5CF8BF0020E0001F76A8A25C3
:10095000F66E8B51F7220900F5CF8EF00A00F5CF25
:100960008FF01ED00001010E896F04011251F66E46
:10097000F76AD890F636F736190EF626150EF722D6
:100980000900F5CF8AF00A00F5CF8BF08AC0F6FF98
:100990008BC0F7FF0800F55000018E6F8F6B00D001
:1009A0000001918312000001010E896F0F0EE66EA7
:1009B000710EE66E0F0EE66E21EC0AF0E552E5527E
:1009C000E552010EE66E930EE66E000EE66E21EC29
:1009D0000AF0E552E552E55212C492F004011251B8
:1009E00004E10001050E906F05D00001060E906F26
:1009F000C9EC08F012000401186B196B04011051C6
:100A00001F0B020A14E0030A0EE0010A01E033D0D2
:100A10000001010E896F04011881000191A102D02B
:100A20000401188328D00001010E896F24D0000131
:100A3000010E896F040114510F0B080DF350156A54
:100A4000000F146E040E15221451800B01E0010EEC
:100A5000040DF350000114248C6F000E15208D6FCF
:100A60008CC0E9FF8DC0EAFFEF50040B03E00401E6
:100A7000010E186F00D0000189050AE10001180E6F
:100A80008A6F040E8B6F000191930001020E8E6F2E
:100A900012000401120510E110511F0B00090CE1B6
:100AA0000001010E896F030E0401115D03E10001D5
:100AB000918102D000019191040112513AE110514B
:100AC0001F0B020836E114510F0B000932E0000140
:100AD000010E896F040114510F0B080DF350156AB4
:100AE000000F146E040E15221451800B01E0010E4C
:100AF000040DF350000114248C6F000E15208D6F2F
:100B0000030E0401115D07E1840E8CC0E9FF8DC066
:100B1000EAFFEF6E0ED014AF06D08CC0E9FF8DC097
:100B2000EAFFEF6A06D0880E8CC0E9FF8DC0EAFFAD
:040B3000EF6E120052
:0C0B34006C500BE1040100513C0BE84246
:100B4000E8420D0802E108D801D03CD804D0040ED8
:100B50006C5C01E147D81200D9CFE6FFE1CFD9FFA5
:100B6000E6520001886B896B8E6B8F6B16EC04F07C
:100B7000DF6ADF50146E156A010E145C000E155802
:100B80001BE20001895101E017D0F76ADF34FE0B48
:100B9000F736F66E1F0EF626150EF7220900F5CF72
:100BA00014F00800F5CF15F004D015C0FAFF14506A
:100BB000F96EFBDFDF2ADDD7DDD8E552E552E7CF5E
:100BC000D9FF1200020E0001885D0AE196D80401E7
:100BD00000BD03D0C80E006F02D0880E006F01D098
:100BE0000FD91200040E0001905D0AE112C46EFFDD
:100BF0006E50000803E2050E906F02D0030E906F56
:100C0000000188050AE10BD8040104BD03D0C80E19
:100C1000046F02D0880E046F01D0F2D81200D9CF31
:100C2000E6FFE1CFD9FF020EE1260001080E8E5D3E
:100C3000000E8F5905E28EC0DEFF8FC0DDFF03D0AE
:100C4000080EDE6EDD6A040104930491010EDB5090
:100C50000413DFCF05F4000EDB5000018E5F010EA0
:100C6000DB508F5B180E8C6F040E8D6F000191A30B
:100C70001ED0D9CFE9FFDACFEAFFEE50ED1016E033
:100C80008AC0F6FF8BC0F7FF0800F5508CC0E9FF63
:100C90008DC0EAFFEF6E00018C2B000E8D238A2B96
:100CA0008B23DF06010E01E2DB06E3D71CD0D9CF90
:100CB000E9FFDACFEAFFEE50ED1015E08AC0E9FF58
:100CC0008BC0EAFFEF508CC0E9FF8DC0EAFFEF6EEA
:100CD00000018C2B000E8D238A2B8B23DF06010E47
:100CE00001E2DB06E4D7020EE15C02E2E16AE552D2
:100CF000E16EE552E7CFD9FF1200D9CFE6FFE1CF91
:100D0000D9FF020EE126030E04010015E76E010E65
:100D1000E7CFDBFF01C4DFFFDE5000018E27DD508F
:100D20008F23180E8A6F040E8B6FD9CFE9FFDACFAD
:100D3000EAFFEE50ED1014E08AC0E9FF8BC0EAFF35
:100D4000EF508CC0E9FF8DC0EAFFEF6E8C2B000ED8
:100D50008D238A2B8B23DF06010E01E2DB06E5D70C
:100D6000020EE15C02E2E16AE552E16EE552E7CF94
:100D7000D9FF12006D98000189510CE10401080EA1
:100D8000016F100E026F040E036F840E006F0401DA
:100D9000046F35D0040110AF22D000018E51040140
:100DA000165D00018F510401175904E216C48EF03C
:100DB00017C48FF034DF0001010E886F0401080EA4
:100DC000016F100E026F040E036F800E006F04019E
:100DD000180E066F040E076FC80E046F10D00001C6
:100DE000020E886F0401056BC80E046F0401080E23
:100DF000016F180E026F040E036FC80E006F120011
:100E00000001886B0401080E016F100E026F040EC2
:0C0E1000036F880E006F0401046B1200D9
:040E1C00D9CFE6FF45
:100E2000E1CFD9FFC30EC216FE0EDB50040DF35006
:100E3000C212C282C2B2FED7FC0EDBCFE9FFFD0EAA
:100E4000DBCFEAFFC3CFEFFF010EE76EFC0EDBCF77
:100E5000E9FFFD0EDBCFEAFFE750E926000EEA22AC
:100E6000C4CFEFFFE552E7CFD9FF12008150100B3E
:100E7000100A01E0010E010803E100017A8102D0AD
:100E800000017A918350400B400A01E0010E0108F5
:100E900002E17A8301D07A938350010B010A0108A1
:100EA00002E17A8501D07A958250400B400A01E038
:100EB000010E010802E17A8701D07A978350100B66
:100EC000100A01E0010E010802E17A8901D07A9945
:100ED0008350800B800A01E0010E010802E17A8B49
:100EE00001D07A9B8250800B800A01E0010E01083C
:100EF00002E17A8D01D07A9D8350080B080A01E047
:100F0000010E010802E17A8F01D07A9F80B802D0E9
:100F10007B8101D07B918150040B040A01E0010E1A
:100F2000010802E17B8301D07B938250040B040A09
:100F300001E0010E010802E17B8501D07B95835021
:100F4000040B040A01E0010E010802E17B8701D0D5
:100F50007B978250010B010A010802E17B8901D0D5
:100F60007B998150080B080A01E0010E010802E19B
:100F70007B8B01D07B9B8250020B020A01E0010EA9
:100F8000010802E17B8D01D07B9D8350020B020A98
:100F900001E0010E010802E17B8F01D07B9F12006E
:100FA00000017C6B7D6B1C0E7C5D000E7D590BE29D
:100FB000600E7C25E96E000E7D21EA6EEF6A7C2BC7
:100FC000000E7D23F0D792683F0E936E010EC26E25
:100FD000070EC16E3C0EC06EC08E928092829284CB
:100FE0009286928A96809682928894809482948443
:100FF0009580958295849586948C948E9588958C11
:10100000958E938493869388959A8C8A1200060E07
:101010000001905D03E36D50020B01E037D0000149
:101020007C6B7D6B080E7C5D000E7D5920E2020E0C
:10103000086E096A7CC00DF07DC00EF0FFEC0AF06E
:1010400006C014F007C015F0600E1426000E15221D
:1010500014C0E6FF15C0E6FF7CC0E6FFDFDEE55208
:10106000E552E55200017C2B000E7D23DBD7FEDE2E
:1010700004010CBF0BD01C0EE66E600EE66E000E77
:0E108000E66EDEEC08F0E552E552E552120095
:02108E0004015B
:1010900010511F0B010801E079D0145101E076D006
:1010A000060E115D2EE11351230A28E0010A13E018
:1010B000030A01E024D00001020E896F00019205AD
:1010C00005E10001900E8A6F140E8B6F090E00016E
:1010D0008E6F8F6B14D00001020E896F0001920594
:1010E00005E10001DC0E8A6F140E8B6F0001920582
:1010F00004E1390E00018E6F8F6B01D000D000012A
:10110000918304011051600BE842E842E842E84252
:10111000E842010801E03AD011510B0A31E0080A17
:1011200021E0090A19E0080A09E00B0A05E0080AAB
:1011300001E02CD02CD82AD02BD828D00001020EC8
:10114000896F0001940E8A6F000E8B6F00019193DE
:101150000001010E8E6F1AD00001020E896F13C4B8
:1011600094F014D00001020E896F0001950E8A6F71
:10117000000E8B6F000191930001010E8E6F06D05F
:101180000001020E896F12C495F000D01200120007
:1011900012000001966B1E0E716E0401080E096F9D
:1011A000200E0A6F040E0B6F880E086F0401280EC4
:1011B0000E6F040E0F6F400E0C6F1200D9CFE6FFBA
:1011C000E1CFD9FFE652FC0EDB501C0805E21C0EF5
:1011D000F36EFC0EF3CFDBFFDF6AFC0EDB50DF5C4F
:1011E00019E2DF50E76EFD0EDBCFE9FFFE0EDBCF2D
:1011F000EAFFE750E926000EEA22EF50E66EDF50E4
:10120000EA6A280FE96E040EEA22E552E750EF6E13
:10121000DF2AE3D7FC0EDBCF0DF4400E04010C17E0
:101220000C7D880E0C13E552E552E7CFD9FF120072
:10123000D9CFE6FFE1CFD9FF0001966B040108BFCB
:1012400031D0FC0EDBCF14F00951D880145403E2E6
:10125000FC0E09C4DBFF0001966BFC0EDB50965DB3
:1012600019E29651EA6A200FE96E040EEA22EF5065
:10127000E66E9651E76EFD0EDBCFE9FFFE0EDBCF8B
:10128000EAFFE750E926000EEA22E552E750EF6E4A
:10129000962BE3D70401080E096F400E0817087D4E
:1012A000880E08130001965100D0E552E7CFD9FF10
:0212B00012002A
:0E12B2006DA615D802D06DB619D800019005B2
:1012C0000EE16DBAFED7686A696A69806988A16AA9
:1012D000D08EF28EA28AA08A0001020E906F1200B8
:1012E0006D6A696A6D860001010E906F12006D6A69
:1012F000696A0001906B120077EF09F000019051CC
:1013000002E14CD049D06850040B06E06950040B50
:1013100003E054D843D040D06DA202D03FD03CD09F
:101320006850010B06E06950010B03E068D836D025
:1013300033D06850100B06E06950100B03E02FD833
:101340002DD02AD06850400B06E06950400B03E0D6
:101350004BD824D021D06850200B06E06950200BD8
:1013600003E044D81BD018D06850020B06E0695047
:10137000020B03E042D812D00FD0030E905D02E2C0
:101380000DD00AD06850080B07E06950080B04E044
:101390009AEC05F0689602D06850B0E11200686AD5
:1013A000696A6980698468986D82A19AF290A08ABE
:1013B000F2860300F2B006D8F29612006D9269949C
:1013C00068941200000191A10ED0F8DF6D84000135
:1013D000080E976F070E986F9707000E985B97514E
:1013E0009811FAE16D941200689C120070A003D06D
:1013F00000EC07F07090689A1200689212006A6A16
:10140000686A9F0E6B6E7B0E696E6E6A0F0EE66EDB
:10141000710EE66E0F0EE66E14D8E552E552E552F7
:10142000160E706E68A602D06896FCD76D9800EC18
:1014300007F0000191910001926B0001030E906F83
:101440001200D9CFE6FFE1CFD9FFFD0EDBCFE9FFD8
:10145000FE0EDBCFEAFFFC0EDB5004E0EE6AFC0E72
:0C146000DB06F9D7E552E7CFD9FF1200F8
:04146C001201000267
:1014700000000008431015000100010200010902EC
:101480002200010100A03209040000010300000055
:10149000092101010001223900070581031C000216
:1014A000040309041C0345006E006400750072000B
:1014B00061006E0063006500200052002F004300B1
:1014C0001C0341006E0061006C006F00670020008B
:1014D00052006500610064006500720005010905A5
:1014E000A1010901A1000930093109320933093488
:1014F0000935093609370940150026FF0F75109583
:101500000D8102C005091901291015002501750179
:1015100095108102C07E147E14A014A414C0148EF1
:0115200010BA
:0E1522002A0EF66E080EF76E000EF86E00012F
:101530000900F550836F0900F550846F03E183675C
:1015400001D03DD00900F5507E6F0900F5507F6F46
:101550000900F550806F09000900F550E96E090097
:10156000F550EA6E090009000900F550816F090085
:10157000F550826F09000900F6CF85F0F7CF86F0AD
:10158000F8CF87F07EC0F6FF7FC0F7FF80C0F8FF7E
:101590000001815302E1825307E00900F550EE6E2D
:1015A0008107F8E28207F9D785C0F6FF86C0F7FF0A
:1015B00087C0F8FF00018307000E845BBFD71200CD
:1015C0000ED8060E0001905D03E36D50020B02E0A1
:1015D000F28EF7D7F28E07EC08F0FCD712000F0E50
:1015E000C112140E6F6E0001906B0001916B00012F
:0E15F000926BD0EC07F059EF09F07EEF09F096
:0215FE0008C023
:1016000012F008500D02F4CF07F0F3CF06F00950A6
:101610000E02F4CF09F0F3CF08F00D02F3500726C5
:10162000F4500822E86A092212500E02F3500726ED
:0A163000F4500822E86A0922000CB9
:06163A0013EE00F023EEA8
:1016400000F0F86A019C91EC0AF032EC0BF0E0EC4F
:061650000AF0FBD71200B6
:0A16560000EE00F00F0EEE6AEA62EB
:04166000FDD71200A0
:02166400120072
:00000001FF
